:020000041000EA
:1000000000B5324B212058609868022188439860DF
:10001000D860186158612E4B002199600221596106
:100020000121F02299502B49196001219960352056
:1000300000F044F80222904214D00621196600F024
:1000400034F8196E01211966002018661A6600F04E
:100050002CF8196E196E196E052000F02FF8012189
:100060000842F9D1002199601B49196000215960AB
:100070001A491B48016001219960EB211966A021F2
:10008000196600F012F800219960164914480160C1
:100090000121996001BC002800D000471248134993
:1000A000086003C880F30888084703B5996A0420EC
:1000B0000142FBD001200142F8D103BD02B5186610
:1000C0001866FFF7F2FF186E186E02BD00000240BE
:1000D000000000180000070000035F00212200005C
:1000E000F4000018222000A00001001008ED00E03C
:1000F00000000000000000000000000074B24E7A12
:1001000000200420F7010010C3010010C5010010F9
:10011000C1010010C1010010C1010010C101001097
:10012000C1010010C1010010C1010010C701001081
:10013000C1010010C1010010C9010010CB01001065
:10014000CD010010CD010010CD010010CD01001037
:10015000CD010010CD010010CD010010CD01001027
:10016000CD010010CD010010CD010010CD01001017
:10017000CD010010CD010010CD010010CD01001007
:10018000CD010010CD010010CD010010CD010010F7
:10019000CD010010CD010010CD010010CD010010E7
:1001A000CD010010CD010010CD010010CD010010D7
:1001B000CD010010CD010010CD010010CD010010C7
:1001C00000BE00BE00BE00BE00BE00BEEFF3058054
:1001D000103800BEF2EB88717C410410A841041075
:1001E0003802001090A31AE71E481F49086006C88D
:1001F00081F3088810471D480068002801D019487D
:10020000F3E70DA40ECC002902D000F012F8F9E7B4
:100210001749184A002000E001C19142FCD116495B
:100220008847164988471649884700BEFDE701C937
:1002300001C29A42FBD37047A8410410C0000020BD
:10024000E00E0020C84F041000000420000004202D
:10025000C84F04100010042000100420000000000B
:10026000704700000000000008ED00E0000000D032
:10027000E00E0020FC280020253C0010F5040010B2
:10028000E53B0010F8B5C04606480749091A8B102F
:10029000C90FC91810B5491003D0044B002B00D06A
:1002A000984710BDE00E0020E00E00200000000086
:1002B000054B10B5002B03D00449054800E000BFF2
:1002C000FFF7E2FF10BDC0460000000084260020BA
:1002D000E4A40010F0B50B4E840023189B00002509
:1002E0009D5123189B00B44663449D60DD608D687A
:1002F0001D614D685D600B6813432418A400A35171
:10030000F0BDC0460000054083001B189B00094853
:1003100084466344100000290AD01004064A196874
:100320004840104080225201944663441860704750
:10033000024AF4E70C0005400000FFFFFFFF000049
:1003400010B5082000F080FA0A2000F07DFA0D2098
:1003500000F07AFAD0231B068020400058628021EA
:10036000C9005962802292015A62986199619A612A
:1003700010BDD0231B06802252009A618022D20039
:100380009A61802292019A61452807D98022520001
:100390005A614F280FD98022D2005A6159280AD9B0
:1003A000D0231B06802292015A618022D2009A61DA
:1003B000632800D95A61704700B585B00421152023
:1003C00000F0D0F801A9002301934B608B6010333B
:1003D0004B60074B8B60074B28221A60FA23DB0027
:1003E0004B608A60273A0220FFF774FF05B000BD1A
:1003F000FFFF00007822002010B50400642800D917
:100400006424094B18686043642101F0E3FE82B262
:1004100001210220FFF778FF2000FFF7AAFF034821
:10042000210003F055FD10BD78220020E8A4001043
:1004300070B501F001FB04000D00174B1A685B68F2
:10044000801A99410A1E08D0134B1C605D60D023AE
:100450001B065B68DB030BD570BD002A02D10F4B76
:100460009842F1D80E4822002B0003F031FDF3E74B
:100470000C4C207801300C4B196801F0ABFEC9B26E
:1004800021702178C9B2094803F022FD2378084A77
:10049000D05CFFF7B1FFDFE7A81000208FD003008A
:1004A00008A50010F6280020D00D002028A5001077
:1004B000E0BF001010B5102000F0C6F9D0231B06D5
:1004C000802252029A6200220121102000F064F87A
:1004D000642001F0D1F9054B01220421102000F025
:1004E0004FF90348102103F0F3FC10BD3104001054
:1004F00044A5001010B503F0B5FC06F0A3FC0028DD
:100500001FD1012106F06AFCFFF71AFFFFF754FF25
:10051000FFF7D0FF0E4B1B780E4AD05CFFF76CFF45
:100520000D4803F0A6FC0A4B1978C9B21B78094A9A
:10053000D25C0A4803F0CCFCFA20C00001F09CF920
:10054000F1E7074803F0C4FC0120404210BDC0465B
:10055000F6280020E0BF001088A50010C8A50010F4
:1005600068A5001010B58300084A9A181468402244
:10057000544080322240064CA44663441A60C000B6
:10058000044B9C466044416010BDC04604C001401D
:1005900004D001400040014080000C4B9C46604468
:1005A00000290ED00823002A0DD00422134302682C
:1005B00053400C2213408022520194466044036051
:1005C00070470023EFE70022F0E7C04604C0014077
:1005D000002906D08000064B9C466044022303603D
:1005E00070478000034B9C46604402230360F7E79A
:1005F00004E0014004F0014070B50400D0231B0664
:100600001D680D4BAA00D358002B0AD0002803D038
:10061000094BAD00EC5070BD08490D2000F00CFCFA
:10062000F6E70028F7D0044BAD00E850034900225C
:100630000D2000F0F5FAEEE700190020A9070010E0
:1006400070B5D0231B061B68094C9D002C59204215
:1006500007D1074D9B0004435C510D2000F0E0FAE8
:1006600070BD044B044A0548DE2103F0BFFAC046C2
:10067000B4260020F0A500100CC000101CA600102D
:1006800010B50400D0231B061A680B4B9200D358F8
:1006900018420BD00D2000F0CFFBD0231B061B68A7
:1006A00005499B005A58A2435A5010BD034B044AB7
:1006B0000448F22103F09AFAB426002058A600104C
:1006C000E8BF00101CA60010072303409B00C008D1
:1006D00099403C308000014BC150704700400140C0
:1006E000F8B507000D0016001C00FFF7EDFFFB0832
:1006F0009B00E4180720384080008540002E05D07C
:1007000080239B019C4664442560F8BDC0239B0167
:100710009C4664442560F8E770B5002A0FD0D023CA
:100720001B061C680F4BA500EB58202810D4002393
:10073000DB0704D40C4BA400E358002B0AD0D023D1
:100740001B061B68002B0BD0084BFFF7C9FF70BDC1
:10075000C340EDE7064B074A0748BE2103F046FABF
:10076000064BF2E7B426002000190020304101407A
:1007700084A6001040C000101CA6001000410140DB
:1007800070B505000E0014001800FFF735FF2200B9
:1007900031002800FFF7C0FF002C00D170BD0121FF
:1007A0000D2000F0E7F9F9E7F0B5D6464F4646468A
:1007B000C0B5D0231B061F681F4BBA00D3589846FC
:1007C000002F03D01D4B9946002626E01C4B99466E
:1007D000FAE7EB40DB0714D524090135002C1BD0C8
:1007E00033000833AB4217D90F231A002240924638
:1007F0002342F1D0134BBA00D358202DE9D4002363
:10080000E8E751462800FFF75FFF4346002BE3D09F
:1008100051462800C047DFE708361D2E06D8F308EA
:1008200008339B004A469C583500D7E7E0BCBA46DF
:10083000B146A846F0BDC046001900203041014035
:1008400000410140B426002010B501238340D0228E
:100850001206936293610521FFF784FE10BD00002C
:1008600010B58023DB05186803051B0D0B4A934266
:1008700007D10B4B034080229201934207D1000F16
:1008800010BD084B084A0948222103F0AFF9084B74
:10089000054A0648232103F0A9F9C04627090000AC
:1008A00000F0FF0FDCA6001058C0001000A70010D9
:1008B0003CA700100FB400B583B0084803F0D9FA84
:1008C000049B002B07D005A90191180003F0E0FA62
:1008D000034803F0CEFA012003F082F950A700107C
:1008E0001CB60010EFF3108072B6034B1B68002B90
:1008F000FBD0BFF35F8F70472C0100D0BFF35F8F39
:10090000024B00221A6080F3108870472C0100D03F
:10091000F8B506000C001500FFF7E4FFE308F71830
:10092000F15C07222240012393400B4205D1DBB248
:100930000B433B70FFF7E2FFF8BD21002800FFF7F3
:10094000B9FFF0B583B00600019114001F00FFF756
:10095000C9FF00E00134BC420CD8E308F518F35C91
:100960000721214001228A401A42F3D1D2B21A4310
:100970002A7001E001246442FFF7C0FF002C02DB73
:10098000200003B0F0BD019B002BF9D00898FFF7C1
:1009900091FF000070B505000C00FFF7A3FFE3080E
:1009A000EE18EA5C0721214001238B40134204D05A
:1009B0009A433270FFF7A2FF70BD034B034A04480D
:1009C000332103F013F9C04660A700106CC000107B
:1009D00080A70010054A1078431CDBB21370172B58
:1009E00002D9130010221A707047C046D40D00209F
:1009F00010B582B00100054C054B00931F2318224F
:100A00002000FFF79EFF02B010BDC046181900205D
:100A1000BCA70010002307E0054A9A189200BFF314
:100A20005F8F0021116001331F2BF5D97047C0463D
:100A300040000034074B9B68103080001950BFF312
:100A40005F8FBFF35F8F044B0021196082F3108822
:100A50007047C04600ED00E0240100D00048704718
:100A600000E400E010B5FFF7F9FF002302E0034ABD
:100A700004C00133072BFAD910BDC04680808080A6
:100A80001F23181A7047000010B50388DA0A1C2AC1
:100A900005D15B055B1502335B00C01810BD034B2D
:100AA000034A10210348FF3103F0A0F8D8A7001033
:100AB000C8C00010F0A7001010B5091A0B1F0A4A91
:100AC00088180A4A904208D8C90706D45B105B050B
:100AD0005B0D0748184380B210BD064B064A022141
:100AE0000648FF3103F082F8FC070000FE0F00000B
:100AF00000E0FFFF2CA80010BCC00010F0A7001001
:100B000010B5091A04394A08090B08D14905490DDD
:100B1000064B0B430380064B1343438010BD054B2C
:100B2000054A0A210548FF3103F060F800F0FFFF95
:100B300000F8FFFF5CA8001098C00010F0A700109C
:100B400001238340034A10681840431E9841C0B2F5
:100B50007047C04600E100E0002A05D0044BC022E7
:100B60005200995019607047014A8023D150FAE72A
:100B700000E100E010B50A001F2303400121994065
:100B80004009FFF7E9FF10BD01238340014A1360CC
:100B90007047C04600E200E0024B9B6810308000C6
:100BA000C058704700ED00E010B5FFF7F5FF0028D2
:100BB00005D0054BC01A2F2803D8012010BD0020F6
:100BC000FCE70020FAE7C046D80D002070B504000D
:100BD0000D00EFF3108672B60C4B1B68002BFBD098
:100BE000BFF35F8F2000FFF7D7FF094B984201D07A
:100BF000A84205D1320029002000FFF71BFF70BD7D
:100C0000044B054A0548E12102F0F0FF240100D021
:100C1000CD0100106CA80010F0C00010F0A700106B
:100C2000F0B5DE4657464E464546E0B589B08146AA
:100C300001911500EFF3108B72B66F4B1B68002B00
:100C4000FBD0BFF35F8F6D4B00269E57002E40DB1D
:100C50007400A419A4006A4824180622A256674BFF
:100C60001A70684B9A684B4610339B00D3589846CD
:100C70001B1A2F2B3BD9644B984531D105AF634BE1
:100C80003B80634973009A46981980005C4B9846F4
:100C900040440230FFF710FF78805E4BBB80FF239B
:100CA000BB71FD71019B0793330053449B00434488
:100CB00007CF07C301231C43A0465A464146484676
:100CC000FFF7B8FE09B0F0BCBB46B246A946A04645
:100CD000F0BD514B514A6E215148FF3102F086FF61
:100CE000504B4E4ABA214E48490002F07FFF012383
:100CF00042469A439246101A0C2101F06BFA0029E1
:100D00000FD153460027DA79AA4212D90621595643
:100D100000290DDB4A005218920039491F008B1838
:100D2000F1E7414B3D4A86213D48FF3102F05EFF2D
:100D30001F00002F2ED005AB3C4A1A80813A5A8002
:100D40000623FB560293002B17DA394805AB9A4667
:100D50009880029A9A71DD71019A0792381D2100DC
:100D6000FFF7AAFEB880BE71254B7200921992005F
:100D70009B18524613CA13C39FE7381DFFF784FE22
:100D800001007000801980001D4BC0180430FFF76F
:100D900093FEDBE705AF1D4B3B801D4973000293BB
:100DA0009B199B00164A90461A0042440392901CDD
:100DB000FFF782FE7880039A101D5146FFF77CFEF4
:100DC000B8801C4B52464146521A524153431B0DA8
:100DD000BB71FD71019A0792029B9B199B004344D2
:100DE00007CF07C3114B52461380813B5380012329
:100DF0001C43A04661E7C046240100D0F72800202C
:100E0000D80D002000ED00E0CD01001000A1FFFF93
:100E1000080E002001BDFFFFA4A80010D8C00010DC
:100E2000F0A70010CCA80010F4A8001001480000A2
:100E300001BD0000AAAA0000F0B5CE46474680B525
:100E400083B006000D00EFF3108872B64F4B1B689D
:100E5000002BFBD0BFF35F8F4D4B9A6834001034EA
:100E6000A300D7584B4B9F4207D0AF4200D18AE036
:100E70000197494BFB1A2F2B09D942463900300004
:100E8000FFF7D8FD03B0C0BCB946B046F0BD300096
:100E9000FFF756FE814600213000FFF76BFEBFF3DF
:100EA0005F8FEFF30581002901D08C4211D101231E
:100EB000019C9C430020A3689D4212D00622A256AA
:100EC000002A0DDB53009B189B00334A2000D418E6
:100ED000F1E7324B324AF4213248FF3102F086FE0C
:100EE00020009D4249D106256557002D2BDB2A4B5A
:100EF0006A00521992009B189A68A260DA79E2712E
:100F00009B795BB2A371002B0FDA2748A080224B9C
:100F10006A00521992009B18244A11789971157031
:100F200049463000FFF726FEA7E768004019800019
:100F3000194BC0180430FFF7A7FD0100231D18004E
:100F4000FFF7BAFDE2E7002912D100280ED0FF23F7
:100F50008371174B838015490B78A3710E4A154B8B
:100F6000A41A644163431B0D0B70D9E7094FF2E7E4
:100F70001149201DFFF7C4FDD2E7104B084A09486C
:100F80000F4902F033FE034F77E7C046240100D03B
:100F900000ED00E0CD010010D80D002078A9001070
:100FA000A8C00010F0A7001001BD0000F728002025
:100FB00001BDFFFFAAAA0000120E0020ACA900107C
:100FC0003502000070B505000C00FFF747FDAB08C7
:100FD0009B00C218116803232B40DB00FF209840C0
:100FE00081439C402143116070BD0000F8B501228F
:100FF00002432C4BD31A2F2B28D8EFF30583002B59
:101000002AD0EFF3108472B6274909680029FBD073
:10101000BFF35F8F234D25490600761B7641714350
:10102000090D4DB2224989689B00C958914219D0D7
:101030000021032930D81B4B4A00521892009B18FC
:101040009B795BB2AB421DD00131F2E7194B1A4AD2
:101050001A481B4902F0CAFD1A4B174A17481A4989
:1010600002F0C4FD124A92681849D150184B1A7800
:1010700082711D70BFF35F8F0B4B00221A6084F3E7
:101080001088F8BD074B4A005618B6009E19FF2776
:10109000B771104AB280E9E70F4B074A07480F497A
:1010A00002F0A4FDD80D0020240100D0AAAA00005F
:1010B00000ED00E0B4A900107CC00010F0A7001003
:1010C0006E020000DCA9001071020000CD010010CA
:1010D000F728002001BDFFFFE8A9001082020000F0
:1010E00010B5FFF7CDFC0100024B1800FFF752FCD2
:1010F00010BDC046FB28002010B582B00100074C8F
:10110000074B0093052300222000FFF71AFC00285C
:1011100001DB1F23181A02B010BDC046FB280020B7
:10112000F0A9001070B504000E001500FFF752FC86
:101130000100200000F006F8A680E580BFF35F8F75
:1011400070BD0000024B9C466144890001607047FD
:101150004000003410B50400FFF73CFC0100200003
:10116000FFF7F0FFFF232371BFF35F8F10BD10B5B2
:101170000400FFF72FFC01002000FFF7E3FFFF232F
:10118000237100236371BFF35F8F10BD10B50D4C49
:1011900009E00D4B0D4A0E481A2102F027FD2000F0
:1011A000FFF7D8FF08340B4B9C4209D22368002B71
:1011B000F5D0012BEDD12000FFF7D9FF0834F2E77D
:1011C00010BDC046D80E00200CAA001084C100102B
:1011D0002CAA0010E00E0020034B9C4661448900BD
:1011E0000160BFF35F8F70474000003410B504000A
:1011F0000120FFF7FDFB01002000FFF7EDFF10BD10
:1012000000040843704700000A4B1968EFF310838D
:1012100072B60A68002AFCD0BFF35F8F054A1268D5
:10122000BFF35F8F0021116083F3108840BF00205F
:1012300000217047C8280020F0B5DE4657464E46CC
:101240004546E0B587B0EFF3058303221A40914687
:10125000B24B9200D7583B784B4507D101234A4601
:1012600093409A46AE4B52461A6021E1AD4BAE4ACE
:10127000AE48922102F0BAFC7A6973009B19DB0038
:101280009046984443469C68DD68A94800F0A2FB5C
:10129000001BA941002900DA12E1002D74DB43464E
:1012A0001B699B46A34B9B454FD00823F85E4346E2
:1012B000598889B2FFF7A4FF43465969D84702907D
:1012C00003910299039A0B00100013435CD01300A2
:1012D0000A00002847DAA41A9D410094019543466C
:1012E000009C019D9C60DD600021595E002900DAB0
:1012F000E6E078694B005B18DB00C3189A68DB688E
:10130000A41A9D41002D00DADAE039813D0008354C
:10131000844604912A000597B346009E019F049BD2
:10132000002B2ADB0023D45E63001B19DB0063441F
:101330009C68DD6830003900001BA94100291CDBD6
:101340001A000021595E0491E9E743465B699B4618
:101350001B6958469847002816D05B461A685B6898
:1013600002920393ADE7724800F034FB029B039CAA
:101370001B184C4100930194B1E70499059F5E4608
:101380004346198016809BE0434600229B5E3B81CA
:101390003A69EFF3108372B611680029FCD0BFF3ED
:1013A0005F8F02217A5E41460A807E803A69BFF3F0
:1013B0005F8F0021116083F3108881E03969EFF3BA
:1013C000108372B60A68002AFCD0BFF35F8FB8881A
:1013D00000B201225242BA803A69BFF35F8F002106
:1013E000116083F310880500BC461CE004930022C2
:1013F0009A5E002A0EDB049B0021595E4B005B18AD
:10140000DB0063449868D96834003D00241A8D419C
:10141000002DEBDA04995D46009B9C4644460D8006
:101420000023E55E2280002D12DB634658696C00C4
:101430006419E4000419A668E768614608310822C7
:101440009A5EAB46049163460093A0468446D0E77B
:1014500067463AE00023BB71390008310823F85E83
:101460000EE001246442E5179460D56008243B5FD8
:10147000834204D00E8008243B5F13803881300003
:10148000431C25D07C6943001B18DB00E218E65E94
:1014900053881BB2002BE4DB1100F0E76B1C24D156
:1014A000234800F097FA241A8D41002D2EDC2BD012
:1014B0001F4B52465A630823FE5E002E00DBDBE61C
:1014C000BB881BB2002B00DB78E7BB79002BC1D1B6
:1014D0000823FA5E002A19DB796953009B18DB00A8
:1014E000CB189C68DD68631CD8D011498A6AA01AA1
:1014F0004B4604339B005B589B1A9842D0D24B4614
:1015000004339B005C50CBE7002CD1D040BF07B028
:10151000F0BCBB46B246A946A046F0BDA4260020BA
:101520003C700540B8AA0010B0C10010E4AA001039
:10153000004005403912001070B504000D00110084
:101540000126AE4006622800FFF740FB012128007B
:10155000FFF710FB024B9C466444266070BDC046FA
:1015600038200000F8B5CE46474680B506008946CB
:1015700090461F00C160FFF72DFA154B9C46604452
:101580008000306143463370BBB27381D0221206B3
:1015900012787270012252423281B2809B1873809D
:1015A000002406E0621E736965002D19ED005A5390
:1015B0000134BC42F6D3074B42469200D650064A4D
:1015C00041464846FFF7B8FFC0BCB946B046F8BD33
:1015D00040000034A42600203912001010B5064B3C
:1015E0001B69002B01D0044810BD044B044A054878
:1015F000652102F0FBFAC046200E002018AB001057
:1016000098C10010E4AA0010F8B504000569EFF3D2
:10161000108072B629680029FCD0BFF35F8F0221C9
:10162000665E656971008919C9006D18002E02DBBC
:101630000027E95F61802169BFF35F8F00270F609A
:1016400080F31088002E2CDB0699296107996961C7
:10165000AA60EB606B8801335B04590C002B00D14E
:10166000012169803000FFF7CBFD2169EFF3108382
:1016700072B60A68002AFCD0BFF35F8FA2882A8066
:10168000A6802269BFF35F8F0021116083F3108869
:10169000E368217801228A4003498C4663441A603A
:1016A000F8BD01204042FBE73C20000070B582B04D
:1016B000060014001D0008AB1B78002B07D100F0BA
:1016C000BBF922002B00121A8B41002B0ADB079B6F
:1016D0000193069B009322002B003000FFF794FF3C
:1016E00002B070BD0020FBE7F0B5C64600B584B07F
:1016F0000500884616001F000AAB1C78FFF76EFF36
:101700000294019700962A004346FFF7CFFF04B0EA
:1017100080BCB846F0BD000030B504000A1443890F
:101720009A422EDA406953009B18DB00C3182569E2
:10173000EFF3108272B628680028FCD0BFF35F8FE9
:10174000588885B20904090C884212D00020236908
:10175000BFF35F8F0021196082F31088002811D039
:10176000E368217801228A4007498C4663441A6065
:1017700008E00649294389B259800123A371012059
:10178000E5E7002030BDC0463C2000000080FFFFA0
:1017900010B50400FFF722FF2100FFF7BDFF10BDC9
:1017A00040787047F0B583B006000F00EFF3058373
:1017B000002B1AD106246442E517A4197D418D42FD
:1017C00002D803D1844201D90024002500F034F965
:1017D00022002B00121A8B41002B0BDC08D03000AA
:1017E000390000F03BF903B0F0BD1648FFF762F88E
:1017F000002AF4D0144A0023009320002900FFF7A8
:1018000073FF002813DAEAE7104B1968EFF310832F
:1018100072B60A68002AFCD0BFF35F8F0B4A1268C9
:10182000BFF35F8F0021116083F3108820BF084B46
:101830005B6A9D42E8D80649896AA142CFD29D429F
:10184000CDD1E1E73CAB001009120010C828002000
:101850000040054070B504000D0000F0EDF80019DF
:101860006941002902DBFFF79DFF70BD0120404266
:101870000049F8E7FFFFFF7F10B5FA22920000232E
:10188000002101F03DF8FFF7E5FF10BD70B582B013
:1018900005000C00EFF30583002B12D0364B5B6A7A
:1018A0008B4209D3344A926A824208D28B4201D0D9
:1018B000012002E0002000E0002002B070BD012005
:1018C000FBE7FFF78BFEC16803788A6A2E00A81A2F
:1018D00004339B005B589B1A984212D320BF264BBF
:1018E0005B6A9C4209D8244A926A954207D99C4275
:1018F00001D00120E1E70020DFE70020DDE7012043
:10190000DBE71E4A0023009328002100FFF7ECFECE
:10191000002818DD184B5B6A9C4205D8164A926A6B
:10192000954202D99C4200D120BFFFF731FF124BF4
:101930005B6A9C421BD8104A926A964219D99C4213
:1019400013D00120B9E70C4B5B6A9C4209D80A4AC4
:10195000926A954207D99C4201D00120ADE7002050
:10196000ABE70020A9E70120A7E70020A5E70020BA
:10197000A3E70120A1E7C04600400540091200107E
:10198000004870470040054010B50B4B1B69002B09
:1019900004D00A480A21FFF7D5FB10BDFFF7F0FF7E
:1019A0000400032100F00CF8034810230322210057
:1019B000FFF7D8FDEDE7C046200E0020C828002024
:1019C00010B5024A0248FEF7A3FF10BD8CAB001011
:1019D0001C1900200200436A906A1900536A994258
:1019E000FAD17047416A00E0416A9942FCD300E0B5
:1019F000416A994202D1816A9142F9D37047F0B5A8
:101A0000C64600B5804614001D00FFF7E3FF060040
:101A10000F0022002B0092197B41994202D804D179
:101A2000904202D901225242D3174046FFF7DAFF13
:101A300080BCB846F0BD000010B50248FFF7CAFFF1
:101A400010BDC0460040054010B502000B00024822
:101A5000FFF7D5FF10BDC0460040054010B502009D
:101A60000B000248FFF7BEFF10BDC0460040054016
:101A7000074B98420AD0162301229A40054B1A6060
:101A8000054B1B6811009943FAD170471723F3E700
:101A90000080034000F0004008C0004070B5046BB7
:101AA000E30701D4200070BD0B4BC3180B4A1A602A
:101AB000456A836AAD01ED18AD02062000F016F903
:101AC000074900F087FB0100280000F083FB00219C
:101AD000FFF7BAFFE6E7C046303000000103000020
:101AE0004E0E000070B504000E001500FFF7D6FF83
:101AF000E36A5E403540024BE3181D60206370BD11
:101B00002C10000070B505000C00062000F0EEF867
:101B1000C000210000F05EFB0130C60907D00E4B6B
:101B20009E4215D8400834003F26064000E00124BC
:101B30006C62AE62002200212800FFF7D3FF06206E
:101B400000F0D4F88000A101891900F043FB70BDBA
:101B50000026024CECE7C046FEFF0000FFFF00003D
:101B6000002909D00A22064B9C4660444342584152
:101B7000044B4000C252704780225200F3E7C04637
:101B80000080FCBFD428002070B504000D000620A2
:101B900000F0ACF800281ED0104B9C421CD016223E
:101BA000012393400E4A13602000FFF761FF0021DC
:101BB0002000FFF7D5FF29002000FFF7A3FFE26A0E
:101BC00070235A400E331340064AA2181360064B86
:101BD00023630323A36470BD1722E1E70080034061
:101BE00000E000402C10000001030000F8B5D646CC
:101BF000474680B506000D0017009846440024189B
:101C0000A400294B9C4664446368089A934200D21E
:101C10006260331FDBB29A46012B2ED9802212015B
:101C2000C0239B01E3181A60204BB200D158002951
:101C300007D0586900F0CEFA013043001B18033B6F
:101C4000FDD27F0123685F40E0233B4080225201A8
:101C5000A21813605346012B1AD980239B01E31865
:101C6000802212011A60089B6360104BB600424646
:101C7000F250C0BCBA46B046F8BD012DCED1032209
:101C8000C0239B01E3181A60A368DB07FCD5D8E7E3
:101C90002168694003230B401360A3680122AA4016
:101CA0001A42FAD0D9E7C04600800040241900202B
:101CB000F0B583B005000E0017001800089900F079
:101CC00089FA0300089A140200943A0031002800AF
:101CD000FFF78CFF03B0F0BD10B582B08024640024
:101CE0000094FFF783FF02B010BD0000014B80009D
:101CF000C058704724190020F0B5C64600B504004E
:101D00000E0017001D00374800F064FA8046364B7D
:101D1000FA18364B9A4239D80100380000F05AFAC6
:101D20000200103A98235B009A4235D86B1E062BAE
:101D300038D8069B013B062B34D83F09474537D39B
:101D40002D04069B1B031D432368002B36DB284B09
:101D50009C4244D00C2201239340264A1360264A19
:101D60001360264A1268190091430A1EF9D12660B1
:101D7000A060234BE31821321A602268002AFCDAA3
:101D8000E56008221A6080BCB846F0BD1D4B1E4AB3
:101D90001E48112101F02AFF1D4B1B4A1B48192127
:101DA00001F024FF1B4B184A18481C2101F01EFFAC
:101DB000194B154A1548232101F018FF22683F23CB
:101DC0001340B342C3D1A3681B051B0D8342BED190
:101DD000E368EE22D2021340AB42B8D1D3E70D2222
:101DE000B9E7C046001BB70080E84BD380F8A932A2
:101DF00000C0024000E0004000F0004008C0004089
:101E000004300000B0AB0010D0C1001000AC0010D6
:101E10003CAC001058AC0010A4AC0010024B1A6887
:101E2000024B5A607047C0467C2600200080054067
:101E300010B5184B8022D2051A60174B174A1A604A
:101E400000290AD0164BE022D2041A60002809D1DA
:101E5000134B802212061A6010BD0E4BE022D204F2
:101E60001A60F3E743011B1A9B001A18D2000D49B0
:101E70000A6018180001086080235B04984201D3AF
:101E8000094A0A60FFF7CAFF054B8022D2051A6093
:101E9000E2E7C04600B0054008200140FCFF010019
:101EA00000A005407C260020FFFFFF0010B50300C6
:101EB00010000C4A8024E4051460002B0DD0012290
:101EC0001343094A094CD461094C5C4014625162C5
:101ED00093620021FFF7ACFF10BD034B0022DA61D3
:101EE000F7E7C04600B0054000800540D3C007B00A
:101EF0002D3FF84F80239B000B43014AD36270476C
:101F00000080054010B5010018231B88142210889A
:101F1000984710BD10B5010018231B8816221088A1
:101F2000984710BDF0B5C64600B507000E00002565
:101F30000123984600E00135B5420AD2AC003C19B5
:101F40002068FFF7DFFF20600028F4D100239846C7
:101F5000F1E7404680BCB846F0BD000070B5040013
:101F60000D000648FFF7CEFF0300002C03DB012025
:101F7000A040290098470020FBE7C04655420000DA
:101F8000064BAA2212011A602F22DA60044B054A7E
:101F90001A60024B5B68002BFBDA7047004002407E
:101FA0000060024000B0FA0010B5040001E008CC67
:101FB0009847024B9C42FAD310BDC046DCA40010E7
:101FC0007047000010B50248FFF7EEFF10BDC04695
:101FD000A0A40010054B064A1A60064B064A1A6078
:101FE000064B1A68044B9343FAD1704700E0004057
:101FF000BFCDFBFE00F00040FE7F3C0008C000406B
:10200000044BDB6C002B03D1034B8022D2021A60FD
:102010007047C046000011504C201150044B054A37
:102020001A60054B1B68DB43DB01FAD17047C046E1
:1020300000F00040FFFFFF0108C00040034B4022BA
:102040009A675A671A67DA667047C04600F001401F
:1020500010B5FEF7DFFC10BD70B5044DA968044C47
:10206000C022200000F0BEFCAC6070BD00ED00E0BE
:102070000000002070B50420FFF738FE064900F08C
:10208000A9F805000024002C00DD70BDE0B2290095
:10209000FFF730FF0134F6E740420F0030B583B060
:1020A000274B00229A67FFF76BFF264B01221A602D
:1020B000234B5B6C012BFBD1234B03221A60204B7B
:1020C0009B6B012BFBD10133009304331F4A012189
:1020D0001F48FFF711FE052300931E4A01211E48E9
:1020E000FFF70AFE1D4B002202210420FFF7F4FD3A
:1020F0001B4D2B00002201210520FFF7EDFD194C9F
:102100002300002200210720FFF7E6FD2300002224
:1021100000210820FFF7E0FD8023DB00009323006F
:10212000002200210920FFF7C3FD2B00002200211F
:102130000620FFF7D1FDFFF79DFF03B030BDC0467D
:10214000008000403CB0004030B00040002F685993
:1021500000800240008C864700C00240001BB70090
:1021600040597307006CDC0201480421014B1847F9
:10217000400E0020251F0010014B9B6818470000EF
:10218000400E0020124A936F9B0815D29066D166CC
:10219000002905D0FFE7FFE7FFE7516F106F704799
:1021A00004B580210906C2175140002800D0C84359
:1021B00008F016F9002104BDF0B5146E556E576F86
:1021C000166FFFF7E3FF1466556657671667F0BD95
:1021D000000000D0114A936F9B0813D2106651661D
:1021E000002905D0FFE7FFE7FFE7516F106F704749
:1021F00004B5002801D00020C04308F0F1F8002108
:1022000004BDC046F0B5146E556E576F166FFFF7DC
:10221000E5FF1466556657671667F0BD000000D0ED
:1022200094464A4A926F9208624601D228E0C0461C
:10223000F0B5464E346E756E776F366F00F020F84D
:102240009446424A14665566576716676246F0BD63
:1022500094463E4A926F9208624601D254E0C046CC
:10226000F0B53A4E346E756E776F366F00F04CF8FD
:102270009446364A14665566576716676246F0BD3F
:10228000002B24DB11D000293EDA00B5C9434042BF
:1022900000D1013100F038F8C943404200D101318A
:1022A000DB43524200D1013300BD002AEBD10028AC
:1022B00001D1002905D00020C90FC90701D1C043B1
:1022C000410800B508F074F80022002300BD00B5F5
:1022D00000290ADBDB43524200D1013300F014F83D
:1022E000C943404200D1013100BDC943404200D141
:1022F0000131DB43524200D1013300F005F8DB43EA
:10230000524200D1013300BD002923D1002B18D146
:10231000002A0CD0BC460D4F38667A660021002397
:10232000FFE7FFE7FFE77A6F386F674670470028DF
:1023300001D00748010000B508F03AF80022002358
:1023400000BD02000B00002000217047000000D0FB
:10235000FFFFFFFF002B00D0BFE0130C28D1002AA5
:10236000E7D080B4114F39667A66FFE7FFE730B4F3
:10237000040C7B6F396F1B0423433B667A66FFE7CF
:10238000FFE7FFE7C04684B27B6F3D6F1B0423432A
:102390003B667A66FFE7FFE7C04600232C042D0C5E
:1023A0007A6F386F00196941B0BC7047000000D0E7
:1023B000F0B594460025140E01D112020835140F11
:1023C00001D112010435940F01D192000235D40FCE
:1023D00001D152000135D40B0134254F7C66254CC8
:1023E0003C660E0C93B2FFE7FFE7FFE73C6F6643E6
:1023F000360C7703BE467343DF0B5B04C01AB9414A
:10240000130C7343DB18C91ACE086643360CB64466
:1024100093B273431F0F1B01C01AB941130C7343CE
:102420001F0B1B05C01AB941860D8F023E43664340
:10243000360C092D24DB520A7243801A7703460AB0
:102440006643360C16235B1BDE40DF40BF19644633
:102450006643821B7046043506330100D940A8400C
:10246000C01900D30131A24206D20023F0BD000002
:10247000000000D0FFFFFFFF121B0130F3D3F1E794
:1024800009277F1BFE406446A2B27243801A00D225
:102490000139220C7243130C1204821A99410B0069
:1024A0007046043513370100F940A840801900D365
:1024B0000131002B02D1A2420AD2F0BD013000D37B
:1024C0000131121BFAD2013BF8D1A24200D2F0BD79
:1024D000013000D30131121BF7E7F0B51C0C00D01E
:1024E00080E00CB400251C0A04D11B02160E3343F5
:1024F000120208351C0B04D11B01160F33431201C5
:1025000004359C0B04D19B00960F33439200023597
:10251000DC0B02D192185B4101351C009718644115
:102520000134464F7C66464C3C660E0CFFE7FFE7E5
:10253000FFE7C0463C6F6643360C7703BE4697B252
:102540007743C01B00D20139C01B00D201399FB2B2
:102550007743C91BC91B170C77437E04FF0B801BF5
:10256000B941CE086643360C0C2D33DBB644120B52
:102570001F053A431B0B97B27743C01B00D20139AA
:102580009FB27743C91B170C77433E043F0C801B57
:10259000B941860D8F023E43664329277F1BFE40CB
:1025A0000C3D7746AF40BF1930BCA2B2ABB272430C
:1025B0007343801A9941220C7243130C1204801A3F
:1025C000994102000B000137001BA941F9D2781E86
:1025D0000021F0BD0C277F1BFE4077467F0BAF40EC
:1025E000FF19E0E700245D1C07D0144F7D663966B3
:1025F000FFE7FFE7FFE7FFE73C6F95B29EB2654359
:102600006643401BB141150C1E0C654366433604FE
:102610002F0C3E432D04401BB141994204D20200CD
:102620000B0020000021F0BD01D19042F7D3801AA9
:10263000994101349942F2D3F6E70000000000D03E
:10264000FFFFFFFF48404140484018B4134B5B6810
:10265000019308BD18B4114B1B68019308BD944643
:102660000F4A926F920805D2624618B40B4BDB6892
:10267000019308BD0A4AF0B5146E556E576F166F78
:102680006246FFF7F2FF064A1466556657671667FB
:10269000F0BD18B4014B9B68019308BDC42600200F
:1026A000000000D0FFB550404240504059404B40E0
:1026B000594000E0FFB5154F4C00640D03D0BC42FB
:1026C00004D10C0314D80020090D09055C00640D29
:1026D00003D0BC4204D11C030AD800221B0D1B05E9
:1026E00001264B4009D44B4003D58B4200D1824296
:1026F000FFBD9942FCD19042FFBD0B43DB18034361
:102700001343F5D0C9434918FFBD0000FF0700007F
:1027100000B5FFF7CFFF804100BDC04600B5FFF711
:10272000C9FF01D9002000BD012000BD00B5FFF7A1
:10273000B9FF01D9002000BD012000BD00B5FFF7A1
:10274000B1FF804100BD012040054A00121804D8A5
:102750005A00121801D8002070470120704700006D
:102760000021002805D17047C1174840401AFAD00F
:10277000C90713B5064B1B6898470CBC441CA24004
:102780001005120B0349091B09051943114310BD1C
:10279000C42700201F04000010B54C00620D8023E8
:1027A000D218DB00D21A5B057E2A10DD9E3A13DABE
:1027B000CC170903490819435242D140640001343F
:1027C0001532202A05DAD0400843604310BD0020AE
:1027D00010BD0846604310BDC80FC018013810BDB9
:1027E00018B4024B5B6A019308BD0000C4260020A8
:1027F00010B50148FEF75EF8C0AC001070B51323A9
:102800001C78012C12D0012C12DC214B214A93643C
:102810002148FFF777FB214B186070BD20491D4A06
:102820009800815001331F2BF8D9ECE70023FAE719
:102830001C48FFF76FFB05001B48FFF76BFB0238D6
:1028400003789B007F2B09DD12488022290000F0CD
:10285000C9F8022C08D0022CDADCD6E7134B144A54
:102860001448332101F0C2F9134B1A88B5231B0217
:102870009A4209D1114B1A88114B9A4204D1114B3B
:102880001A88114B9A42E6D00020FEF713F8C04692
:10289000CD280010C42600204C330000C42700209F
:1028A000F12700105344000053460000D8AC00103C
:1028B000DCC100101CAD001054380000D8380000F6
:1028C000494600009C3800005946000007B56046A4
:1028D000002800D100BE01880A0A0230DF2AFAD19E
:1028E000C9B2820804D3028840880004104300E083
:1028F0000068024A5050039007BD0000C426002023
:1029000051434343C9188C46110C83B24B4310B456
:10291000040C614392B280B2504362431C041B0C0E
:10292000001910BC59411304120CC01851416144E4
:102930007047000010B50148FDF7BCFFECA5001082
:1029400070B513231E781848FFF7E4FA0500012E2E
:1029500011D0012E09DDAB1E1B789B007F2B1DDDE6
:1029600012488022290000F03DF81148FFF7CAFA0A
:10297000104B186070BD0D485422290000F032F849
:10298000002300E001331F2BE3D8084A9C00A25823
:10299000002AF7D10849054AA150F3E7074B084A36
:1029A0000848422101F022F953460000C8270020C0
:1029B0004C330000C42700203529001068AD0010FA
:1029C000F0C100109CAD001001480421014B1847D4
:1029D000500E0020251F0010014B1B6818470000F7
:1029E000500E0020014B5B6818470000500E00207D
:1029F000704710B5002802D00B684968984710BD91
:102A00000100002007E083001B185B00501C0860D9
:102A10001078C01830380A681378303BDBB2092BC5
:102A2000F1D97047F0B5DE4657464E464546E0B50B
:102A300083B093461F000C9B9A460D9C0E9B9946B3
:102A40000F9B9B0717D0B8460F00060022E0551CCD
:102A50004B4641462020B84701342A00B442F6D301
:102A60003D004F465C46019B9B46B1464646B846F4
:102A700037002E000EE00192A34688464E46B94626
:102A80000700EBE7013C551C5346185D43463900EF
:102A9000B0472A00002CF5D135003E0047460F9B79
:102AA0009B0711D4100003B0F0BCBB46B246A94648
:102AB000A046F0BD541C4B4641462020B84722009A
:102AC000531BB342F6D3EDE7B0464E46B9462F004E
:102AD0005D46F5E7F0B5CE46474680B585B09446ED
:102AE00098460C9D0D9C0EAB1B789946109A119B35
:102AF000129EB7071CD4002B0CD0F7070AD54F46FF
:102B0000002F02D10C37374204D0013B02E03027BE
:102B10002F550134944201D21F2CF8D9F70707D55D
:102B20009C4205D21F2C03D830272F550134F5E7DE
:102B3000F70612D5770505D4002C03D0944221D096
:102B40009C421FD00F9A102A2FD00F9A022A36D0FB
:102B50001F2C0AD830222A5501341F2C05D84A468A
:102B6000002A32D02D222A55013403960293019473
:102B7000009543466246FFF755FF05B0C0BCB94615
:102B8000B046F0BD621E012C17D00F9F102F0BD046
:102B900014000F9A102AD8D1B206D6D51F2CD4D83B
:102BA00058222A550134D3E7023CB206F1D41F2C37
:102BB000EFD878222A550134CAE71400C2E71F2C47
:102BC000D3D860322A550134C2E7720703D52B22CD
:102BD0002A550134C9E73207C7D520222A550134C6
:102BE000C3E7F0B5DE4657464E464546E0B593B0DE
:102BF00081468A46089209931CAB10CB1B789B46F2
:102C00001E9D219B9846002C03D1102342469A43D7
:102C100090468023DB0046461E4042461A4218D0AA
:102C2000002C22D0002614E0424692061BD54121FA
:102C3000C918C9B20A39C9B2771C0AAB995529001B
:102C40002000FFF7C7FAAC4210D31F2F0ED83E006A
:102C5000040029002000FFF7BDFACBB2092BE3D80E
:102C60003033D9B2E8E76121E2E727004346069313
:102C7000209B05931F9B049303955B46029301974A
:102C80000AAB0093099B089A51464846FFF722FF7A
:102C900013B0F0BCBB46B246A946A046F0BDF0B5A5
:102CA000DE4657464E464546E0B597B00A900B9132
:102CB0000C929A46209B9946219F22AA13789B4604
:102CC000249B0993259C289B98464A463A4302D167
:102CD0001032934398468022D20045461540434621
:102CE00013420AD04A463A4341D000252E005346AB
:102CF0000D934D46099B9A4621E02E0053460D93B5
:102D00004D46099B9A461AE04246920623D5412237
:102D1000D218D2B20A3AD2B2731C99460EAB9A5567
:102D20005246230028003900FFF792FABC4220D80F
:102D300013D04B461F2B16D84E4605000F005246A7
:102D4000230028003900FFF783FAD3B2092BDBD820
:102D50003033DAB2E0E76122DAE7AA45E9D94E4634
:102D60000D9B9A4608E04E460D9B9A4604E00026CD
:102D700002E04E460D9B9A4643460693279B0593D9
:102D8000269B0493099B03935B46029301960EAB2B
:102D9000009353460C9A0B990A98FFF79BFE17B0C5
:102DA000F0BCBB46B246A946A046F0BDF0B5DE4633
:102DB00057464E464546E0B591B0804689460C924E
:102DC0009A461A9C1B9D22002B0020002900FFF729
:102DD000BAFC002800D0F2E001225242D54B20007C
:102DE0002900FFF7ABFC002800D0E8E001225242A6
:102DF000D14B20002900FFF78BFC002800D0DEE03B
:102E00000022002320002900FFF782FC002800D0C8
:102E1000EAE0069407958023DB001E9A1A400D9283
:102E20001E9A1A4201D106231C93069807990200A4
:102E30000B000892099303000A00024300D1DFE06F
:102E4000080D4005400DBD4EB4466044079E320358
:102E5000120B1E00BA4B13431F00FFF785FCB94A43
:102E6000B94BFFF716FCB94AB94BFFF7F3FB0890D3
:102E700009910022B74B30003900FFF7E6FBB64A54
:102E8000B64BFFF706FC02000B0008980999FFF704
:102E9000E1FBFFF781FC8346FFF766FC06000F00AD
:102EA000AF4AB04BFFF7F5FB0022AF4BFFF7D2FB69
:102EB000FFF772FC0890AD4AAD4B30003900FFF7C8
:102EC000E8FB06000F000898FFF74EFCA94AAA4B42
:102ED000FFF7DFFB02000B0030003900FFF7B5FB06
:102EE00006000F0002000B00FFF7D3FB0A900B91C6
:102EF000089BA24A9446634400210022089109924B
:102F00001B0509930023089332003B003000390071
:102F1000FFF7A0FB0E900F9132003B0000208021B4
:102F2000C905FFF792FB06000F000022944B0A9898
:102F30000B99FFF794FB0022924BFFF78BFB0200EB
:102F40000B000A980B99FFF78AFB00228E4BFFF7C4
:102F500081FB02000B000A980B99FFF780FB02002F
:102F60000B0030003900FFF775FB02000B000E98D4
:102F70000F99FFF774FB0022714BFFF76BFB089A68
:102F8000099BFFF786FB06000F0008960997069A33
:102F9000079BFFF7D3FB00280BD001235B429C4625
:102FA000E3440022774B30003900FFF758FB0890CC
:102FB00009915B466333C62B45D8042623E01E9B4C
:102FC00004931D9B03931C9B02930094019553460D
:102FD0000C9A4946404600F0FBF811B0F0BCBB46E5
:102FE000B246A946A046F0BD0021002206910792F4
:102FF000069480231B069C46AC44634607930AE76D
:1030000000239B4604261E9B1B0528D5089A099B76
:10301000190011430FD05D4A5D4B06980799FFF7E1
:1030200085FB00287AD000225A4B06980799FFF7B3
:103030006FFB002872D01C9B5B4506DD5A469B1A2D
:10304000013B1C9303E00526DDE700231C9380234E
:10305000DB001E9A1A431E92002600239B461D9BEE
:103060009E4265D29F1B02231E9A1A400A921E9A04
:10307000134202D0002E00D000275B46002B07D061
:10308000089A099B06980799FFF7E9FA06900791B5
:103090000022002320002900FFF73AFB002800D07F
:1030A0007CE03D4B1E9A1340049303971C9B0293B4
:1030B000069B079C0093019453460C9A4946404650
:1030C00000F086F8002E00D187E71E9B9B0671D585
:1030D0004525441C5346020049462800C0475A462D
:1030E000D317D2185A4005230593013E04960023B6
:1030F00003930A3302935B46DB0F0193009253461E
:10310000220049464046FFF76CFD0A9B002B00D188
:1031100063E7020047460C9E1D9D53E01C9B002B5D
:103120009DD00D9B002B9AD01C9B013B1C9396E7D6
:10313000002798E7FFFFEF7FFFFFEFFF01FCFFFF96
:103140000000F03FFB799F501344D33FB3C8608B1E
:10315000288AC63F0000F83F61436F63A787D23FCC
:1031600071A379094F930A400000E03F1655B5BBA3
:10317000B16B0240EF39FAFE422EE63FFF0300003A
:1031800000002C4000002440000018402D431CEBA0
:10319000E2361A3F80842E41FFF7FFFF069C079D11
:1031A0002200290080200006844661440B0006921C
:1031B000079376E765258CE7541C53464946202043
:1031C000B8472200931BAB42F6D3100005E7C04678
:1031D000F0B5DE4657464E464546E0B595B00690FA
:1031E000079193469946209F1E9A1F9B1000190035
:1031F000FFF7A9FA002831D101225242BC4B1E9898
:103200001F99FFF785FA002837D101225242B94BA6
:103210001E981F99FFF792FA00283DD10022B64B65
:103220001E981F99FFF78AFA00284AD10022B34B53
:103230001E981F99FFF76CFA002842D10022002344
:103240001E981F99FFF764FA00284AD10023984678
:10325000229B5B0500D4B0E0002452E0229B039344
:10326000219B029303230193A54B00934B465A469F
:1032700007990698FFF7D6FB08E1229B0393219B51
:103280000293042301939F4B00934B465A460799A0
:103290000698FFF7C7FBF9E0229B5B070ED59A4B18
:1032A00004222299039121990291019200934B46A5
:1032B0005A4607990698FFF7B5FBE7E0934B0322C0
:1032C000EFE7229B0493219B039302971E9B1F9C75
:1032D000009301944B465A4607990698FFF766FDFE
:1032E000D4E01E9A1F9B00200021FFF7AEF91E902C
:1032F0001F9101239846ABE70CAB30221A55013FD2
:1033000001341F2C01D8092FF6D81E981F99FFF7FA
:1033100043FA0500FFF728FA02000B001E981F99D8
:10332000FFF793F97A4BFA009B181A685B680A92C8
:103330000B93FFF7AEF908900991FFF751FA0600D9
:10334000FFF70EFA02000B0008980999FFF77DF9C4
:103350000890099100226F4BFFF7F0F900282ED05A
:1033600001363000FFF7FCF902000B000A980B99B8
:10337000FFF7D4F9002801D001350026002F2CD109
:103380002800FFF7F1F902000B001E981F99FFF7C4
:103390005CF906000F0000225E4BFFF7B9F9002828
:1033A00046D100225B4B30003900FFF7C7F90028F7
:1033B0003ED1EB073CD501353AE006274CE7002229
:1033C000544B08980999FFF7A3F90028D6D1002E8D
:1033D00001D0F307D2D50136D0E7AA461F2C11D869
:1033E000013F0A213000FEF7F5FE651C30310CABC1
:1033F00019550A213000FEF7EDFE092E0ED9060000
:103400002C00EBE755461F2C0CD87B1E002F09D053
:103410000CAA302111551F000134F4E72B0055464A
:103420001C00F0E71F2C03D80CAB2E221A550134D8
:103430001F2C10D80A212800FEF7A4FE661C30318C
:103440000CAB19550A212800FEF79CFE051E01D081
:103450003400EDE734000323229A1340012B1CD0E3
:103460001F2C06D84346002B32D00CAB2D221A5508
:103470000134229B0393219B029301940CAB009394
:103480004B465A4607990698FFF7CCFA15B0F0BCA0
:10349000BB46B246A946A046F0BD219B002B13D0E7
:1034A0004346002B02D10C3313420FD0219B013B2A
:1034B0002193190003E00CAB30221A5501348C42E1
:1034C000CED21F2CF7D9CBE72199F8E72199F6E75F
:1034D000229B5B0704D50CAB2B221A550134C8E79D
:1034E000229B1B07C5D50CAB20221A550134C0E71F
:1034F000FFFFEFFFFFFFEF7F65CDCD4165CDCDC174
:103500003CAE001040AE001030AE001038AE0010DF
:10351000F8C300100000E03FF0B5DE4657464E46C7
:103520004546E0B593B007008A46934611930029BB
:1035300000D12CE3002508E06C1C5B462A005146B4
:10354000B847119B013311932500119B187800286F
:1035500000D11EE32528EFD1013311930023180079
:1035600020E00123184301321192012418E00223C4
:10357000184301321192012412E00423184301324E
:10358000119201240CE00823184301321192012406
:1035900006E01023184301321192012400E00024B8
:1035A000002C09D0119A1378203BD9B21029F6D8F3
:1035B0008B00C449CB589F468146119B1A78130053
:1035C000303BDBB2092B10D92A2A13D00B94119B64
:1035D0001A782E2A20D0119A1378683BD9B2122972
:1035E00065D88B00B849CB589F4611A8FFF708FA59
:1035F0000B90ECE71C9B1A1D1C921B68002B04DB34
:103600000B93119B01331193E1E702220100114357
:1036100089465B420B93F4E78022D200494611436E
:1036200089465A1C11925A781300303BDBB2092BA1
:103630000BD92A2ACFD11C9B1A1D1C921C68002C66
:1036400008DB119B01331193C5E711A8FFF7D8F9E7
:103650000400C0E70024F4E780235B0049460B43E5
:10366000511C119151786C2901D099461FE0C0235B
:103670009B004946194389460232119217E0802384
:1036800049460B43511C11915178682901D0994644
:103690000DE0C0234946194389460232119206E0E3
:1036A00080235B0049461943894601321192119BE0
:1036B000187867281CD8252800D25EE20300253B35
:1036C000DAB2422A00D958E29300804AD3589F4682
:1036D00080239B0049461943894601321192E6E74F
:1036E00080235B0049461943894601321192DEE787
:1036F000782800D941E2692800D23EE20200693A06
:10370000D2B201239340724A134210D11A0600D557
:103710000CE25B0500D430E21C9B1A1D1C921E6853
:10372000002C00D0BAE101225242330096E16F280A
:1037300042D005D8582841D0622803D1022606E09D
:1037400078283DD010234A469A4391460A265828A5
:1037500038D0692805D0642803D00C224B46934307
:1037600099464B465A0502D501229343994669284A
:103770002DD064282BD04B469A0500D5AAE0DA0557
:1037800000D5C2E05A0600D4D3E01C9A111D1C914A
:103790001168FF220A404B4605930B9B0493039448
:1037A00002960023019300925B462A00514638009E
:1037B000FFF717FA05002AE00826C8E71026C6E733
:1037C0001026C4E720224B4613439946C1E74B46D7
:1037D0009A0520D4DA0551D45A0666D51C9A111DD3
:1037E0001C911168FF220A40D017111841404B4626
:1037F00005930B9B049303940296D20F01920091C0
:103800005B462A0051463800FFF7EBF90500119B93
:103810000133119399E61C9A073207218A4311005C
:1038200008311C91116853689C46DB170C930D936B
:103830000C9A0D9B100048400E900D9B61464B402A
:103840000F930E980F990C9A0D9B801A99410E9028
:103850000F914B4608930B9B079306940496002305
:1038600005936346DA0F0292009001915B462A00AD
:1038700051463800FFF713FA0500C8E71C9A111DDE
:103880001C911268D0171118414005930B9B0493AB
:1038900003940296D20F019200915B462A00514692
:1038A0003800FFF79EF90500B1E71A0605D51C9A06
:1038B000111D1C910023D25E96E71C9A111D1C91CC
:1038C000126891E758C200109CC20010E8C20010B4
:1038D000419000001C9A073207218A4311000831E9
:1038E0001C9108930B9B0793069404960023059361
:1038F000029353681268009201935B462A00514676
:103900003800FFF7CCF9050081E71C9A111D1C91C6
:1039100005930B9B04930394029600230193136871
:1039200000935B462A0051463800FFF75AF905001C
:103930006DE71A0606D51C9A111D1C911268120417
:10394000120C28E71C9A111D1C91126823E74628C7
:103950001AD01C9B0733072293431A0008321C928B
:103960004A4604920B9A039202941A685B6800928A
:1039700001935B462A0051463800FFF729FC0500F9
:10398000119B01331193E0E520234A461A439146E7
:10399000DFE7672801D0472804D180231B014A466E
:1039A0001A439146452801D0472803D120234A468F
:1039B0001A4391461C9B0733072293431A0008328F
:1039C0001C924A4604920B9A039202941A685B680E
:1039D000009201935B462A0051463800FFF7E6F952
:1039E0000500119B01331193AFE502234E461E40A3
:1039F0004A4613421ED001241C9B1A1D1C926A1CAD
:103A0000904618785B462A005146B847002E14D1DC
:103A1000119B01331193454697E5551C5B46514672
:103A20002020B84723002A005C1C0B999942F4D847
:103A30001500E1E701232A00F6E7424606E0561C9E
:103A40005B4651462020B8472C003200651C0B9B7A
:103A5000A342F4D89046DBE701330A001978002925
:103A600002D0511E002AF7D19B1B8022D20049466A
:103A7000114088464946114202D0A34200D9230092
:103A8000022249461140109149460A4208D02A00B4
:103A9000250099463B004746984626E0220044E62A
:103AA000A1462A005146B2460E0006E0551C5B4670
:103AB00031002020B84723002A005C1C0B99994252
:103AC000F4D8150022004C46330056469A469146DB
:103AD0002A0025003B004746984606E01D000136B7
:103AE000541C5B465146C04722003078002804D061
:103AF000002FF4D06B1E002DF0D115004B46474629
:103B0000109A002A03D1119B013311931DE50B9EDE
:103B10002A0006E0551C5B4651462020B84723008A
:103B20002A005C1C9E42F5D81500ECE721234A468A
:103B30001A4313001C9A111D1C9112680593082347
:103B400004930394083302930023019300925B468D
:103B50002A0051463800FFF744F80500119B013355
:103B60001193F2E46C1C5B462A0051462520B847AD
:103B7000119B013311932500E7E46C1C5B462A007E
:103B80005146B847119B013311932500DDE40A4FDC
:103B9000D0E45D450DD35B465A1E5B46514600207E
:103BA000B847280013B0F0BCBB46B246A946A046B1
:103BB000F0BD2A00F1E7C046F129001010B584B02D
:103BC0000C0002A902904C600124044800931300E9
:103BD0006242FFF7A1FC04B010BDC046F3290010FB
:103BE00000BEFDE710B5FFF7FBFF000030B583B066
:103BF0000D001900002A0BD0074B084C01920093CE
:103C00002B000200200000F063F90120FFF7E8FF1D
:103C1000034B1A00F1E7C04648AE001058AE001042
:103C2000ECA5001010B5EFF30583002B00D000BE0B
:103C3000FEF7C8F9034C01E008CC9847024B9C42C0
:103C4000FAD310BDDCA40010E4A4001010B50300EA
:103C5000080011001B68984710BD0000F8B5070068
:103C60000D001600437D002B02D0002400200CE044
:103C700003681100280098472DE03B7D10E03B6869
:103C8000154802219847601C0134B44214DA002C14
:103C9000F3DD2B19013B1B780D3B5A425341DBB23C
:103CA0002A5D0A2AF0D1002BEED1A042E7DA3B6868
:103CB000211A28189847E2E7B04203DA3B68311A24
:103CC00028189847002E06DDAD19013D2B780D3BD5
:103CD0005A4253413B75F8BD48C4001070B5050009
:103CE0000368002B16D00C4B1C6805E0290004C9A2
:103CF0002000FFF7B3FF2469002C09D02368002BB4
:103D0000F9D0064B1B68002BF0D0A342F3D1EDE7AE
:103D100000232B6070BDC0466C220020742200205E
:103D200070B505000C000B68802B05D023685A1C69
:103D30002260E418257170BD0800FFF7CFFFF5E79A
:103D400010B5FDF779FE074A002312184B41002BEE
:103D500003DB054806F064FB10BD01225242034B11
:103D6000F7E7C04640420F00D80E0020FFFFFF7F5C
:103D700010B5024806F014FB10BDC046D80E002056
:103D8000F0B5CE46474680B583B006000D0090469C
:103D90001C00FFF7D5FF81466B1C05D0002C08D016
:103DA000184F194B1C6807E0300006F0B7FA050001
:103DB000F4E7164FF5E72469002C17D02368002B91
:103DC000F9D0134B1B68002B01D0A342F3D12A007A
:103DD00031002000B8474346002BECD06B46D91D7C
:103DE0000A230B7001222000B847E4E74B46002B62
:103DF00005D1280003B0C0BCB946B046F0BDFFF7FE
:103E0000B7FFF6E75D3C00106C2200204D3C00102F
:103E1000742200200A4A136802E01A0010321B695B
:103E2000002B09D013688342F7D1002907D1036919
:103E300013600023036102E0002900D01060704786
:103E40006C22002010B5064B1C6800E02469002C91
:103E500004D06368002BF9D09847F7E710BDC0463F
:103E60006C22002010B500F045F900F0E5FA0120C1
:103E700010BD70B5050006F051FA040001230122BF
:103E800001002800FFF77CFFFFF7DCFF200070BD7A
:103E9000F0B5A3B004000E00FFF752FF050001AF1C
:103EA000002301930948330022003900FFF786FE02
:103EB00004003800FFF712FFFFF7C4FF002D02D106
:103EC000200023B0F0BDFFF753FFF9E7213D0010BC
:103ED0000FB400B583B004A901C90191FFF7D8FF61
:103EE00003B008BC04B0184710B582B00C00144BE6
:103EF000C3185A425341134A5B009B5E8B4204D065
:103F00006B46DA1D1470002115E06B46DA1D0D2397
:103F1000137000210029F3D183699B06FCD4137828
:103F2000036001310132F5E783699B06FCD4137805
:103F30000360013101320029F6D002B010BDC04645
:103F40000080FCBFD428002082B000226B46D91D1F
:103F500006E08369DB06FCD403680B700132013193
:103F6000002AF6D06B46D87902B0704770B50600CB
:103F70000D00002405E0315D034B1868FFF7B4FF26
:103F80000134AC42F7DB70BDD8280020F8B506003C
:103F90000D00002705E07C1CF719FFF7D5FF3870EE
:103FA0002700AF4204DA0D4A10688269D206F2D5C2
:103FB0000B4A1268002A0AD0084A126850219163FD
:103FC000506B18390140074B9C4662441160002F2A
:103FD00001D03800F8BD033FFBE7C046D8280020D9
:103FE000081900203410000010B5064B1B68002B88
:103FF00006D0054A126800219163044A1068984768
:1040000010BDC04608190020D82800201019002033
:10401000024B1A6893691B07FCD47047D82800200C
:1040200070B51D4B1B681D4A934207D0142400280D
:104030001ED01B4B1B68002B02D070BD1524F6E769
:10404000174B1860174B196017492000FCF7BEFD8D
:1040500001212000FCF78EFD0F4B1B6850229A6354
:10406000596B183A0A4011498C4663441A60E4E7D8
:104070000B4A1268002AE0D000259D630021200031
:10408000FCF778FD08492000FCF7D6FE044B1D60C4
:10409000044B1D60D1E7C046D828002000800340B3
:1040A0000819002010190020E93F0010341000000A
:1040B00070B50D001C000D4B1860002A0BDA002CA7
:1040C0000EDA0A4B18682900FDF75EFD0848012149
:1040D000FFF7A0FE70BD02211000FCF743FAEEE7E7
:1040E00002212000FCF73EFAEBE7C046D82800206A
:1040F000600E002010B5074B1B78074B1B78074B51
:104100001B78E1210123002249020548FFF7D0FF77
:1041100010BDC046A04104109C41041098410410F9
:104120000040034070470000014B00221A707047A6
:10413000F82800204B79FF2B0CD18B79002B0BD169
:10414000CB79012B0AD1082A0AD98A78054B1A7033
:10415000092000E0002070470020FCE70020FAE77B
:104160000020F8E7F82800200120704710B5012949
:1041700027D1117953791B020B43134909788B42DC
:1041800001D000201EE05378012B03D0022B11D068
:10419000002017E09178D3781B021943DB0506D580
:1041A000480A8A05D20F7F231940FDF7D7FE012068
:1041B0004042F6E7642200210020FDF777FE01204F
:1041C00000E0012010BDC046F828002000487047DC
:1041D00030C5001010B51400012910D15378012BFF
:1041E0000FD1127963791B021343072B01D00020F2
:1041F00006E0054A9F33210001F048FB00E0012062
:1042000010BD0020FCE7C04688C4001001230370E5
:104210000048704768C4001010B50A784B781B023C
:1042200013438A7812041A43CB781B061343962251
:10423000D200934200D010BD012000221100404264
:10424000FDF78CFE024B1860024B19607047C046A8
:104250000C1900201419002010B5FDF7EDFB0E4AD3
:10426000002312184B41002B12DB0C4806F0D8F843
:1042700000280CD001200021404201F0D1F900209B
:1042800001F056FC0028F5D1044806F089F810BD6D
:1042900001225242024BE8E740420F00CC280020A6
:1042A000FFFFFF7F10B5024B1878FCF76DFC10BDC7
:1042B000F92800200268EFF3108172B61368002B12
:1042C000FCD0BFF35F8F41607047000070B5144BA6
:1042D0001B68002B1AD0124C2000FFF7EBFF114B8C
:1042E00000221A7021686368BFF35F8F0A6083F34E
:1042F0001088002400250C4B1878FCF721FC0028BE
:1043000008D1002400252000290070BDFA24A40053
:104310000025F0E7044B1878FCF736FCF3E7C046BD
:104320009C260020FA280020F9280020F0B585B04E
:10433000060014001D000CAB1F78FDF77DFB22006A
:104340002B0012184B41002B09DB02970B990191AE
:104350000A9900913000FDF7A9F905B0F0BD0122DE
:104360005242014BF1E7C046FFFFFF7FF0B5C64662
:1043700000B584B00500884616001F000AAB1C7803
:10438000FDF72CF90294019700962A004346FFF7A7
:10439000CDFF04B080BCB846F0BD000010B582B0BF
:1043A0001F48002106F02CF8002818D11D4B1B686F
:1043B000002B12D01B4C2000FFF77CFF1A4A137809
:1043C000DBB20121117021686268BFF35F8F0020AA
:1043D000086082F31088002B17D002B010BD0120B6
:1043E0000021404201F01CF9002001F079FB04009B
:1043F0000B4805F0D5FF002CEFD00C4B1B68002BB1
:10440000EBD00B4A10689847E7E70A4A013300935C
:104410000023FA2080000021FFF7A8FFDDE7C04657
:10442000CC2800209C260020FA2800200C1900200F
:1044300014190020CD42001010B582B0D0231B0605
:104440001C68FDF7CBF8FDF7ABF9A0422ED1264B47
:104450001B7802F035F8254B1B68002B2CD001206F
:10446000FCF74AFE224C20702249FF231840FCF73B
:10447000ADFB20780121FCF77DFB0520FCF794FBC8
:10448000041E1DD00120FCF7B3FA01001A4B1800DE
:10449000FCF7A2FE194900220520FCF7C1FB1848D1
:1044A0000121FFF7B7FC200002B010BD154B164AE2
:1044B0001648C121FFF79AFB0C48FCF74BFECEE7EC
:1044C0000D4808220021FEF787FA114A01230093C4
:1044D0000023FA2080000021FFF748FFC043C40FEB
:1044E0000028E0DADBE7C046A4410410CC28002015
:1044F000F92800209D4300109C260020A5420010B2
:10450000780E0020ACA9001060C50010B4AE0010F9
:10451000CD42001010B5002001F0C6FA10BD000019
:1045200070B505000C00FFF7F5FF002834D000201F
:1045300001F0D6FA002832D0FDF77EFA1B4A00239C
:1045400012184B41002B19DB194805F069FF0028B0
:1045500028D0FFF7DFFF002804D0002001F0C0FAC8
:1045600000280FD101200021404201F059F8032416
:1045700064420F4805F014FF200070BD0122524232
:104580000C4BE1E722002900002001F0B5FA041EDF
:10459000EFD103246442ECE703246442ECE70324F4
:1045A0006442E9E703246442E6E7C04640420F0064
:1045B000CC280020FFFFFF7FF0B5C64600B580463F
:1045C0000C00FDF739FA314A002312184B41002B39
:1045D00007DB2F4805F024FF002806D180BCB84631
:1045E000F0BD012252422B4BF3E7FFF793FF002867
:1045F00049D1294B0020002118605960244805F05A
:10460000CFFEEBE701200021404201F009F8002035
:1046100001F08EFAFFF77EFF0028EFD0002001F0B6
:1046200009FB002820D0A542E8DA661B002001F033
:1046300001FB0200864200DC3200002AE2D0434641
:104640005919002001F0D2FA060001200021404251
:1046500000F0E6FF002001F06BFAAD19FDF7ECF970
:104660000D4B18605960DEE7FDF7E6F90A4B1E684E
:104670005F680A4A002392197B419942BED8D2D181
:104680009042D0D9BAE70025CDE7C04640420F009E
:10469000CC280020FFFFFF7FB010002020A10700E2
:1046A00000487047DCC500100048704788C50010FE
:1046B00010B50400154B1B78002B0ED0002C11D127
:1046C000134B144A5A80012301335B009BB21048FC
:1046D000C02292001343038010BD0C48112100F04A
:1046E0002DF8EBE7052C0ED80B4BA400E458002363
:1046F000122BE9D8E15C0029E6D00133044A5800C6
:104700008152DBB2F4E70020E6E7C046DC28002057
:10471000442200200904000070C5001010B50248B2
:1047200000F038F810BDC046BC26002010B5024984
:104730000822FEF757F910BDBC26002010B500294D
:1047400001D0002308E00F4B0F4A10483531FFF726
:104750004DFA3732C25401334A1E9A420ED90F2BFA
:104760000CD85A080A4CA45C01229A4392001441C6
:104770000F222240092AECDC3032EBE7C01800237C
:10478000037010BD38AF0010F0C5001040AF00102E
:10479000BC26002070B588B0040004AD0D220021B5
:1047A0002800FEF719F90D2200216846FEF714F9DA
:1047B0004B232B700D226946280005F0E9FD0023EC
:1047C00004E05A1D69468A5CE2540133072BF8DD88
:1047D00008B070BD10B5038B3F333F2293430229CD
:1047E00015D0124C2268C260D31823609C0610D1E9
:1047F0000F4C6240634080246401A3420FD88906B5
:10480000114380231B060B434268136010BD5B00FD
:10481000E7E7084B084A09485121FFF7E7F9084B39
:10482000054A06485321FFF7E1F9C04680260020DB
:104830000000105014B1001060C6001044B1001008
:1048400098B1001070B582B005007F230340C40901
:10485000580000194001254E801985706542654158
:1048600045700025C5700183C276012C1BD0DE0087
:104870001F498C4666441D495D002D196D0149197B
:104880008E601A4D5E0036197601AD19A9680025B3
:104890000D60002B0DD1154A931900225A60154A5C
:1048A000DA6002B070BDDE0013498C466644866053
:1048B000E7E7012C0ED05D1EED0010498C466544E3
:1048C0000A495B001B195B01C9184D601100FFF715
:1048D00081FFE6E75D1EED0009498C46654403490A
:1048E0005B001B195B01C9184D60EFE77C220020BB
:1048F0008400105000011050800010500C00105027
:104900000800105010B504007F202040E40940004A
:1049100000194001024BC01800F032F910BDC0462A
:104920007C22002010B5002804D101210520FCF7CD
:1049300021F910BD034B044AD42104484900FFF774
:1049400055F9C046E0B1001050C6001044B1001047
:1049500010B5002805D1002200218020FFF7D2FFEA
:1049600010BD034B034AD92103484900FFF73EF924
:10497000E0B1001040C6001044B10010024B80228C
:104980005202DA647047C0460020115070B5041E10
:1049900026D100F0D3F8164D0C23AB671549FF2242
:1049A0000520FCF73DF9144840220021FEF714F8D9
:1049B000002240210020FFF745FF002240218020F7
:1049C000FFF740FF05F0FCFC01232B6480239B05CF
:1049D000EB649023094AEA502000FFF7CFFF70BD37
:1049E000074B084A76210848FF31FFF7FFF8C04619
:1049F00000001150890600207C22002010D0010008
:104A0000E0B1001074C6001044B10010044B1970DE
:104A1000002904D0034A902380218902D150704795
:104A2000F3280020002011500B785B0602D14B7850
:104A3000052B00D070478A78014B1A60FAE7C04610
:104A40000000115010B50A0000280DD188780979AE
:104A500053791B020B435B05590DD2789207920FD5
:104A6000FFF7F0FE012010BD034B044AF02104487B
:104A7000FF31FFF7BBF8C046E0B1001030C60010B0
:104A800044B1001010B505F09BFC10BD10B504003A
:104A9000080011001A00002C03D1FFF733FF01209A
:104AA00010BD034B034AFE2103484900FFF79EF85F
:104AB000E0B1001020C6001044B1001010B57F23F3
:104AC000180008400B4205D1CB09012B0ED0022261
:104AD000074B9A66C909400040184001054BC018B1
:104AE00080221201002105F0C3FC10BD0122EFE776
:104AF000002011507C22002010B57F2210000840B9
:104B00000A4200D110BDC909400040184001044BC1
:104B1000C0180023C3700022024905F0A9FCF1E788
:104B20007C220020FFF7FFFF04E00A7802700131C9
:104B300001301A00531E002AF7D1704710B58023A8
:104B40005B040A4A13600A4A13600A4B1A688023FE
:104B50005B049343F9D18022520100210648FDF7FE
:104B60003BFF064B09225A6710BDC04600E00040DB
:104B700000F0004008C0004000001050000011503C
:104B800070B504000D001600837E002B17D1A6829D
:104B90000023E3820133A3762561200005F058FC51
:104BA000002804D00C4A902380218902D150200093
:104BB00005F066FC00280AD00123237770BD8178B8
:104BC0000648FFF785F9200005F04AFCDFE72000E2
:104BD00005F02EFCF2E7C04600201150C8B20010CC
:104BE00070B50500002408E09B1A5B01164A9B186B
:104BF000DB68280098470134E4B2144B1A7823008C
:104C0000511CA1420DDBA242EED9114B1B6862017F
:104C10009B18002BECD10F490F48104AFFF758F9A9
:104C200010E00F4C542200212000FDF7D5FE201D7E
:104C30001022FF21FDF7D0FE200014302022FF219A
:104C4000FDF7CAFE70BDC046ECC70010F228002078
:104C5000B8100020BCC7001000B3001016020000FE
:104C6000E41300200268EFF3108172B61368002B82
:104C7000FCD0BFF35F8F4160704710B5FFF7B0FF06
:104C800000F050FE10BD70B505000C00160048691C
:104C900000F052FE6369320001212800984770BD80
:104CA000F0B5DE4657464E464546E0B583B08246EF
:104CB0000139C8B2FFF7F8FC002803D043789946C1
:104CC000022B0CD055495648564AFFF701F90020EF
:104CD00003B0F0BCBB46B246A946A046F0BDC579BC
:104CE0006C110122504B1440240119781026B14355
:104CF00021431970AD112A405201C9B22024A143A9
:104D00000A431A70060009368278C3781B021343DF
:104D100083469B444B460193370066E0FB789946F7
:104D20003A78BF1868E03D493D48404AFFF7D0F85F
:104D30000020CDE7009AD31A5B013D4E9E193369DE
:104D40002200390050469847082801D9844216D2DB
:104D50000135EDB2374B1B7800955A1CAA423EDB59
:104D6000AB42E7D9344B1B686E019E19002EE6D189
:104D70002A492B48314AFFF7ABF80020A8E7340056
:104D8000009E00904B46012B11D0002049468142E5
:104D90001BD9BB781B18DBB2234AD2181279FF2A21
:104DA0000CD1214AD3181D710130C0B2EFE721693F
:104DB000234A9142E9D1019B9946E6E717491848F1
:104DC000204AFFF785F8002082E71F482B00009C4F
:104DD0002200390001F020FCA446674400E02E00C8
:104DE000144B1B7801339E420FDC5F4514D27B7855
:104DF0000B2B93D0012399467A78042A93D15B46F2
:104E0000DA1B93B200251C00A4E7044904480F4AAA
:104E1000FFF75EF800205BE7012059E790C700101C
:104E200000B30010C7030000E4130020E2030000F9
:104E3000ECC70010F2280020B8100020EB0300009F
:104E4000D95D00100A040000F813002019040000C6
:104E500070477047002070470020704770B505000C
:104E60000C00CB7888780F2B53D89A002E498A589B
:104E70009746FFF715FC021E05D0122321002800DB
:104E800000F004FD46E0294929482A4AFFF720F8A6
:104E900000203FE0FFF79AF9021E3CD08178C378EA
:104EA0001B020B432100280000F0F0FC32E0022B33
:104EB0000CD0FFF7D1FF021E2FD09178D3781B02C0
:104EC0000B432100280000F0E1FC23E0FFF7ECFB9E
:104ED000021EF2D115491648174AFEF7F9FF0020C5
:104EE00018E02379617909021943FFF7E1FB021EFB
:104EF00015D003782100280000F0C8FC0AE0FFF775
:104F0000A9FF021E0DD003782100280000F0BEFC8E
:104F100000E0002070BD0020FCE70020FAE7002040
:104F2000F8E70020F6E7C04690C6001078C70010EA
:104F300000B300102B0400005204000070477047BB
:104F400070477047024B5878431E9841C0B2704773
:104F5000E4130020024B18784007C00F7047C0468A
:104F6000E4130020034B1878FF38431E9841C0B269
:104F70007047C046AC0E002070B50500FFF7F2FF89
:104F8000061E01D0300070BD254854220021FDF7D7
:104F900023FD244B00221A70234C2000FCF7DAF882
:104FA000224B1C60224C2000FCF720F9143C20000E
:104FB00001F0CCFE1F4B1C601F4B002B04D01F4880
:104FC000FFF724F91E4B1860002409E09B1A5B01CF
:104FD0001C4A9B185B68002B10D098470134E4B240
:104FE000164B1A782300511CA1420EDBA242EDD9C8
:104FF000134B1B6862019B18002BEBD1F122124965
:1050000012485200FEF764FFBCE7114B1D702800E8
:10501000FFF7BCFC2800FFF785FC0126B2E7C0467D
:10502000E4130020F42800209C13002038140020F2
:10503000A40E00203C1400200D420010F228002095
:10504000B8100020ECC70010E0C7001000B300103B
:10505000AC0E002070B50D00104B1E788B787022BE
:105060001A420DD10E4B9978280001F07FFA041EE8
:105070000DD029003000FFF7E5FC0400200070BDD2
:1050800008490948094AFEF723FF0024F6E70549C5
:105090000548074AFEF71CFFF0E7C046AC0E0020AB
:1050A000E413002048C7001000B30010FC04000007
:1050B000FD040000F0B5D6464F464646C0B58146D1
:1050C0000C0017009846089B9A46002517E09B2283
:1050D00017491848D200FEF7FBFE00263000E0BC5E
:1050E000BA46B146A846F0BD11491248124AFEF729
:1050F000EFFEF3E7099A13702378E4180135AF4205
:1051000014DD6378052BE2D1E1788907890F4145E9
:10511000DDD121004846FFF79DFF061EE4D0A378AD
:10512000DA09012AE6D052461370E5E70126D5E7F1
:1051300058C7001000B30010D904000010B57F203C
:105140000840C909400040183030044BC0180430F2
:10515000034B196801F0C6F910BDC046E4130020E6
:105160003814002010B57F200840C90940004018BD
:105170003030044BC0180430034B196801F0DAF9E1
:1051800010BDC046E413002038140020F0B5C64618
:1051900000B582B001931A4800787F250D40CE09F2
:1051A000184C6F00E419A41930342479E4071DD495
:1051B000144C6F00E419A419303423790127BC463C
:1051C00067463B432371019BFFF760FC002813D126
:1051D0000C4B6D005B199B1930331A7901218A43FE
:1051E0001A711A7903318A431A7105E00649074892
:1051F000074AFEF76DFE002002B080BCB846F0BD45
:10520000AC0E0020E413002038C7001000B30010DB
:105210002A05000070B50A4B18787F240C40CD0990
:10522000FFF74CFC074A640013195B1930331A79F5
:1052300002210A431A711A7901210A431A7170BDB9
:10524000AC0E0020E413002070B50A4B18787F24C0
:105250000C40CD09FFF750FC074A640013195B1995
:1052600030331A7902218A431A711A7901398A4333
:105270001A7170BDAC0E0020E41300207F220A409A
:10528000C909044B52009B185B183033187980070A
:10529000C00F7047E4130020F0B585B005000C0086
:1052A000002000F049FB237860221A40602A1AD0BF
:1052B000402A1FD02378DB06DB0E012B00D1D4E07F
:1052C000022B00D114E1002B00D07AE1202A1BD060
:1052D000002A00D07DE16378092B00D97BE19B0097
:1052E000C44AD3589F46C449C448C54AFEF7F0FD96
:1052F000002667E1C34800F01FFB220001212800BF
:10530000FEF768FF06005DE123790F2B00D95CE111
:10531000BD4AD3181B79BD4A1278934207D2BC4AC2
:1053200011685B01C918002909D100264AE1511C06
:10533000994200DA4BE19B1A5B01B64959182200E9
:105340002800FFF7A0FC06003CE1200000F0FAFA7C
:10535000A1782800FFF7FCFAAB4A137802210B432F
:10536000137001262EE1A84B5B7802AA0632137057
:1053700001232100280000F089FA012622E1A67805
:10538000A14B5B78B3422BD09F4B5B78002B0CD1A9
:105390009D4B5E70002E21D031002800FFF780FC6D
:1053A000061E12D0FFF7CAFD1AE000212800FFF701
:1053B0002DFB2800FFF766FB934FBB780193280075
:1053C000FFF70EFC019BBB70E2E78B498B48924ACA
:1053D000FEF77EFD8C4B00225A70F3E0FFF7AFFD25
:1053E0002100280000F03EFA0126EBE02100280011
:1053F000FFF734FD0600E5E0A278E3781B021343D3
:10540000012B01D00026DDE07F4A137808210B43F1
:1054100013702100280000F025FA0126D2E0A278BE
:10542000E3781B021343012B01D00026CAE0764A21
:10543000137808218B4313702100280000F012FA22
:105440000126BFE0704B1A785109920802231340DD
:1054500001220A40134302AA0632138002232100CC
:10546000280000F013FA0126ACE023790F2B00D9B5
:10547000B3E0654AD3181B79644A1278934223D269
:10548000634A11685B01C918002900D1A7E0220016
:105490002800FFF7F8FB061E00D093E02378602277
:1054A0001A4200D08EE063780A3B012B00D989E0D4
:1054B000002000F041FA63780A2B0ED0210028006A
:1054C00000F0D0F901267DE0511C994200DA88E015
:1054D0009B1A5B014F495918D9E702AB9A1D00236B
:1054E000137001332100280000F0D0F9013669E083
:1054F00021797F200840CE0970230B4217D1424BFF
:1055000040001B189B191B7D40480078834215D230
:105510003F4806685B01F618002A19D0002E62D0B9
:10552000220031002800FFF7AEFB06004AE03249B6
:1055300032483A4AFEF7CCFC002643E0461C9E4225
:1055400004DB1B1A5B01334E9E19E5E70026E3E7F7
:105550006378012B10D0032B0ED0002B45D12800EF
:10556000FFF78CFE02AB9A1D108002232100280059
:1055700000F08CF9012625E0A078E27812020243BF
:1055800004D1012B19D02800FFF744FE002E2ED0A5
:10559000220031002800FFF776FB002000F0CCF954
:1055A000194B35229B5CDB07DE0F002B0AD1210053
:1055B000280000F057F9012604E02800FFF744FE18
:1055C000E4E70026300005B0F0BD0026FAE700262B
:1055D000F8E70026F6E70026F4E70026F2E70026C3
:1055E000F0E70026EEE70026ECE70026EAE70126D2
:1055F000E8E7C046ECC60010A4C7001000B30010D6
:10560000C5020000D5410010E4130020F22800205C
:10561000B8100020ECC7001015030000860300003E
:1056200030B585B0FFF79EFC002808D105B030BD2D
:1056300001AC2078FFF721FB2279604B9A70604B18
:105640001C6820001430FFF70DFB01A9200001F0B9
:1056500020FB6269A369BFF35F8F0021116083F3B0
:1056600010880028E2D001AB5B78082BE7D89B00BC
:10567000544AD3589F4601AB1878FFF7FEFAFFF75C
:105680005EFCDCE7504B1B78002B2DD04E4A137884
:10569000013BDBB213701378002BD0D1474B1A7843
:1056A000012401210A431A703422995CA1439954C0
:1056B000995C0420814399540132995CA143995427
:1056C000995C8143995401AB187802A9FFF7E4FD76
:1056D0000028B4D101AC20780021FFF7EFF9207841
:1056E0008021FFF7EBF9AAE738493948394AFEF734
:1056F000EFFB9BE701AB19797F220A40CC092F4BC6
:1057000050001B181B19303318790125A843187154
:1057100018790335A8431871002A15D0274B520079
:105720009B181B191B7D2C4A1278934213D22B4ACB
:1057300012685B01D318002B15D09C6901A842792F
:10574000039B0078A0477AE701A84279039B007881
:1057500000F006F973E7501C984204DB9B1A5B01CA
:105760001F4A9B18E9E7194919481E4AFEF7B0FB82
:105770005CE7124B1B78DB0700D460E70F4B18780F
:105780000007C00FFFF7DCFB59E70C4B1B78DB076A
:1057900000D454E7FFF7D5FB51E7029B002B00D163
:1057A0004DE7039898474AE7044BDB78DB0700D4C2
:1057B00045E70298FFF74DFB41E7C046E4130020A0
:1057C0003C14002014C70010F4280020D0C700109B
:1057D00000B3001056020000F2280020B81000208C
:1057E000ECC700108102000010B50023CB56002B3F
:1057F00005DB802100230022FFF7C8FC10BD00213B
:10580000F8E70000F8B50500144B9F89DE89BB1B43
:105810009BB21C1C402B00D94024A4B20F4B1B7818
:105820005BB2002B08DB0021B74213D00C4A2300E7
:105830002800FFF7ABFCF8BDB74209D0074B9968C9
:10584000402C09D806482200FDF7CCF88021EBE770
:105850008021E9E70022EAE70020ECE78813002036
:10586000A413002070B506000D00074C082220008C
:10587000FDF7B8F80023A360E381A381290030007D
:10588000FFF7B2FF70BDC04688130020F0B5C646D2
:1058900000B580460C0016001D001F4B08221F009B
:1058A0001800FDF79FF8BE600023FB81A379E17922
:1058B000090219430B1CA94200D92B1C99B2164AA4
:1058C0009381A279E3791B02134319D0002901D0F7
:1058D000002E08D04046FFF795FF041E0AD0200096
:1058E00080BCB846F0BD0D490D487722FEF7F0FAAE
:1058F0000024F4E709490A487D22FEF7E9FAEEE7B9
:1059000021004046FFF770FF041EE8D10349044818
:105910008022FEF7DDFAE2E78813002044C8001079
:1059200000B3001010B5034814220021FDF754F80D
:1059300010BDC04688130020014B18617047C04657
:105940008813002010B50100044C08222000FDF748
:1059500049F80023A360E381A38110BD88130020D0
:1059600070B505001C00C909314B1B78DB098B425F
:1059700016D0002C07D02F492F48A722FEF7A8FAEF
:105980000024200070BD2A4C2100FFF74DF8236948
:10599000002B03D0264A0321280098470124F0E772
:1059A000234B1B785BB2002B07DB214B9868002848
:1059B0003CD022492200FDF715F81D4AD389A1B237
:1059C0005B189BB2D381916809199160D288934288
:1059D00001D03F2C1FD8164B1B69002B05D0144A51
:1059E00002212800984700280BD011492800FFF712
:1059F000FBFE041EC5D10F490F48D022FEF768FAFE
:105A0000BFE700212800FFF759F880212800FFF7A1
:105A100055F80124B5E72800FFF7F4FE041EB0D1C5
:105A200004490548D822FEF753FAAAE70024A8E75C
:105A3000881300202CC8001000B30010A41300200D
:105A400070B50500FFF77EFA002802D1002420007F
:105A500070BDFFF77FFA041EF8D1EB78002BF5D06C
:105A60002E001036300001F0FDF83F28EFD9E9781C
:105A70000020FFF763FB002801D10400E7E73000B6
:105A800001F0F0F83F2809D992239B00EA18E97841
:105A900040230020FFF77AFB0400D8E7E9780020D4
:105AA000FFF760FBD3E7000010B50400FFF74AFAE8
:105AB000002801D1002010BDFFF74CFA002809D1C1
:105AC000064BB222920062439B181B79DB0703D579
:105AD0000130F0E70020EEE70020ECE7C0100020E6
